:100000008EC09DC09CC09BC09AC099C098C097C02C
:1000100097C095C094C093C092C091C090C0191968
:100020001A1A1A1A1A1B1B1B1B1B1C1C1C1C1C1C1F
:100030001D1D1D1D1D1E1E1E1E1E1E1F1F1F1F1FE0
:1000400020202020202121212121212222222222A0
:10005000232323232324242424242525252525265E
:100060002626262627272727282828282829292919
:1000700029292A2A2A2A2B2B2B2B2B2C2C2C2C2DD2
:100080002D2D2D2E2E2E2E2F2F2F2F303030303184
:100090003131313232323233333333343434353533
:1000A0003535363636363737373838383939393ADC
:1000B0003A3A3A3B3B3B3C3C3C3D3D3E3E3E3F3F7B
:1000C0003F4040404141424242434344444445450D
:1000D0004646474748484949494A4A4B4C4C4D4D8A
:1000E0004E4E4F4F505151525253545455565757EC
:1000F00058595A5A5B5C5D5E5F6061626364656615
:1001000067696A6B6D6E7071737577797B7D8082BC
:1001100085888B8F93989DA3AAB3BECDE4FF11244D
:100120001FBECFE5D2E0DEBFCDBF10E0A0E6B0E05D
:1001300001C01D92A136B107E1F772D0A0C060CF17
:100140001F920F920FB60F9211245F936F937F93BC
:100150008F939F93AF93BF93EF93FF93E4B1F5B168
:10016000E031F10560F0E11582E0F80750F0F2505F
:10017000F695E795E25EFF4F8491813518F080E5B2
:1001800001C083E290916000913081F4833218F4D1
:10019000109260001BC090E063EC70E04AD0895A76
:1001A0009A416DE270E057D0645C11C0893270F002
:1001B00090E063EC70E03DD0895A9A416DE270E0C6
:1001C0004AD0645C81E08093600001C060E06BBD58
:1001D000369AFF91EF91BF91AF919F918F917F914F
:1001E0006F915F910F900FBE0F901F90189587B57C
:1001F000826887BD07B400FEFDCF87B5846087BDE8
:1002000081E080BF80E68CBD8FEF8DBD1BBC80E19F
:1002100087BB8FE886B983E087B97894369A0895CA
:10022000E6DF85B7806285BF889585B78F7D85BFFE
:10023000F8CF5527002480FF02C0060E571F660F17
:10024000771F6115710521F096958795009799F7AD
:10025000952F802D0895AA1BBB1B51E107C0AA1F33
:10026000BB1FA617B70710F0A61BB70B881F991F57
:100270005A95A9F780959095BC01CD010895F89401
:02028000FFCFAE
:00000001FF
