:100000008EC09DC09CC09BC09BC099C098C097C02B
:10001000A6C095C094C093C092C091C090C0191959
:10002000191A1A1A1A1A1A1B1B1B1B1B1C1C1C1C24
:100030001C1C1D1D1D1D1D1E1E1E1E1E1E1F1F1FE6
:100040001F1F2020202020212121212122222222A5
:100050002222232323232324242424242525252565
:10006000252626262627272727272828282828291F
:100070002929292A2A2A2A2A2B2B2B2B2C2C2C2CD7
:100080002C2D2D2D2D2E2E2E2E2F2F2F2F3030308C
:10009000303131313132323232333333343434343B
:1000A00035353535363636373737383838383939E3
:1000B000393A3A3A3B3B3B3C3C3C3D3D3D3E3E3E83
:1000C0003F3F404040414142424243434444444513
:1000D000454646474748484949494A4B4B4C4C4D91
:1000E0004D4E4E4F4F5051515253535455555657F4
:1000F0005858595A5B5C5D5D5E5F6061626365661E
:100100006768696B6C6E6F71727476787A7C7F81C8
:1001100084878B8E92979CA2A9B2BDCCE3FF112459
:100120001FBECFE5D2E0DEBFCDBF10E0A0E6B0E05D
:1001300001C01D92A236B107E1F789D0B7C060CFE8
:100140001F920F920FB60F9211248F93809161002E
:100150008BBD8F910F900FBE0F901F9018951F921F
:100160000F920FB60F9211245F936F937F938F932B
:100170009F93AF93BF93EF93FF93E4B1F5B1E03258
:10018000F10560F0E11582E0F80750F0F250F695C5
:10019000E795E25EFF4F8491813518F080E501C05C
:1001A00083E2909160009130A1F4833228F41092A0
:1001B00061001092600021C090E063EC70E050D0CC
:1001C000895A9A416DE270E05DD0645C6093610091
:1001D00014C0893280F090E063EC70E041D0895A1D
:1001E0009A416DE270E04ED0645C6093610081E002
:1001F0008093600002C010926100369AFF91EF91E7
:10020000BF91AF919F918F917F916F915F910F906F
:100210000FBE0F901F90189587B5826887BD07B4F1
:1002200000FEFDCF87B5846087BD82E080BF80E699
:100230008CBD8FEF8DBD1BBC80E187BB84E089BF87
:100240008FE886B983E087B97894369A0895E4DF19
:1002500085B7806285BF889585B78F7D85BFF8CFCC
:100260005527002480FF02C0060E571F660F771F18
:100270006115710521F096958795009799F7952F4F
:10028000802D0895AA1BBB1B51E107C0AA1FBB1FED
:10029000A617B70710F0A61BB70B881F991F5A9512
:1002A000A9F780959095BC01CD010895F894FFCFF2
:00000001FF
